{
  "contractName": "WeatherCrowdsale",
  "abi": [
    {
      "constant": true,
      "inputs": [],
      "name": "hasClosed",
      "outputs": [
        {
          "name": "",
          "type": "bool"
        }
      ],
      "payable": false,
      "stateMutability": "view",
      "type": "function"
    },
    {
      "constant": true,
      "inputs": [],
      "name": "rate",
      "outputs": [
        {
          "name": "",
          "type": "uint256"
        }
      ],
      "payable": false,
      "stateMutability": "view",
      "type": "function"
    },
    {
      "constant": true,
      "inputs": [],
      "name": "cap",
      "outputs": [
        {
          "name": "",
          "type": "uint256"
        }
      ],
      "payable": false,
      "stateMutability": "view",
      "type": "function"
    },
    {
      "constant": true,
      "inputs": [],
      "name": "weiRaised",
      "outputs": [
        {
          "name": "",
          "type": "uint256"
        }
      ],
      "payable": false,
      "stateMutability": "view",
      "type": "function"
    },
    {
      "constant": true,
      "inputs": [],
      "name": "closingTime",
      "outputs": [
        {
          "name": "",
          "type": "uint256"
        }
      ],
      "payable": false,
      "stateMutability": "view",
      "type": "function"
    },
    {
      "constant": true,
      "inputs": [],
      "name": "capReached",
      "outputs": [
        {
          "name": "",
          "type": "bool"
        }
      ],
      "payable": false,
      "stateMutability": "view",
      "type": "function"
    },
    {
      "constant": true,
      "inputs": [],
      "name": "wallet",
      "outputs": [
        {
          "name": "",
          "type": "address"
        }
      ],
      "payable": false,
      "stateMutability": "view",
      "type": "function"
    },
    {
      "constant": true,
      "inputs": [],
      "name": "isFinalized",
      "outputs": [
        {
          "name": "",
          "type": "bool"
        }
      ],
      "payable": false,
      "stateMutability": "view",
      "type": "function"
    },
    {
      "constant": true,
      "inputs": [],
      "name": "openingTime",
      "outputs": [
        {
          "name": "",
          "type": "uint256"
        }
      ],
      "payable": false,
      "stateMutability": "view",
      "type": "function"
    },
    {
      "constant": false,
      "inputs": [
        {
          "name": "_beneficiary",
          "type": "address"
        }
      ],
      "name": "buyTokens",
      "outputs": [],
      "payable": true,
      "stateMutability": "payable",
      "type": "function"
    },
    {
      "constant": true,
      "inputs": [],
      "name": "token",
      "outputs": [
        {
          "name": "",
          "type": "address"
        }
      ],
      "payable": false,
      "stateMutability": "view",
      "type": "function"
    },
    {
      "inputs": [
        {
          "name": "_rate",
          "type": "uint256"
        },
        {
          "name": "_wallet",
          "type": "address"
        },
        {
          "name": "_token",
          "type": "address"
        },
        {
          "name": "_openingTime",
          "type": "uint256"
        },
        {
          "name": "_closingTime",
          "type": "uint256"
        },
        {
          "name": "_cap",
          "type": "uint256"
        }
      ],
      "payable": false,
      "stateMutability": "nonpayable",
      "type": "constructor"
    },
    {
      "payable": true,
      "stateMutability": "payable",
      "type": "fallback"
    },
    {
      "anonymous": false,
      "inputs": [],
      "name": "Finalized",
      "type": "event"
    },
    {
      "anonymous": false,
      "inputs": [
        {
          "indexed": true,
          "name": "purchaser",
          "type": "address"
        },
        {
          "indexed": true,
          "name": "beneficiary",
          "type": "address"
        },
        {
          "indexed": false,
          "name": "value",
          "type": "uint256"
        },
        {
          "indexed": false,
          "name": "amount",
          "type": "uint256"
        }
      ],
      "name": "TokenPurchase",
      "type": "event"
    },
    {
      "constant": false,
      "inputs": [],
      "name": "finalize",
      "outputs": [],
      "payable": false,
      "stateMutability": "nonpayable",
      "type": "function"
    }
  ],
  "bytecode": "0x60806040526007805460ff1916905534801561001a57600080fd5b5060405160c0806106f383398101604090815281516020830151918301516060840151608085015160a090950151929491929091908083838888886000831161006257600080fd5b600160a060020a038216151561007757600080fd5b600160a060020a038116151561008c57600080fd5b60029290925560018054600160a060020a03928316600160a060020a03199182161790915560008054929093169116179055428210156100cb57600080fd5b818110156100d857600080fd5b600491909155600555600081116100ee57600080fd5b6006555050505050506105ed806101066000396000f3006080604052600436106100b95763ffffffff7c01000000000000000000000000000000000000000000000000000000006000350416631515bc2b81146100c45780632c4e722e146100ed578063355274ea146101145780634042b66f146101295780634b6753bc1461013e5780634bb278f3146101535780634f93594514610168578063521eb2731461017d5780638d4e4083146101ae578063b7a8807c146101c3578063ec8ac4d8146101d8578063fc0c546a146101ec575b6100c233610201565b005b3480156100d057600080fd5b506100d96102a3565b604080519115158252519081900360200190f35b3480156100f957600080fd5b506101026102ab565b60408051918252519081900360200190f35b34801561012057600080fd5b506101026102b1565b34801561013557600080fd5b506101026102b7565b34801561014a57600080fd5b506101026102bd565b34801561015f57600080fd5b506100c26102c3565b34801561017457600080fd5b506100d9610334565b34801561018957600080fd5b5061019261033f565b60408051600160a060020a039092168252519081900360200190f35b3480156101ba57600080fd5b506100d961034e565b3480156101cf57600080fd5b50610102610357565b6100c2600160a060020a0360043516610201565b3480156101f857600080fd5b5061019261035d565b34600061020e838361036c565b6102178261039b565b60035490915061022d908363ffffffff6103b816565b60035561023a83826103c5565b60408051838152602081018390528151600160a060020a0386169233927f623b3804fa71d67900d064613da8f94b9617215ee90799290593e1745087ad18929081900390910190a361028c8383610397565b6102946103cf565b61029e8383610397565b505050565b600554421190565b60025481565b60065481565b60035481565b60055481565b60075460ff16156102d357600080fd5b6102db6102a3565b806102e957506102e9610334565b15156102f457600080fd5b6102fc61040b565b6040517f6823b073d48d6e3a7d385eeb601452d680e74bb46afe3255a7d778f3a9b1768190600090a16007805460ff19166001179055565b600654600354101590565b600154600160a060020a031681565b60075460ff1681565b60045481565b600054600160a060020a031681565b61037682826104a5565b60065460035461038c908363ffffffff6103b816565b111561039757600080fd5b5050565b60006103b2600254836104ce90919063ffffffff16565b92915050565b818101828110156103b257fe5b61039782826104f7565b600154604051600160a060020a03909116903480156108fc02916000818181858888f19350505050158015610408573d6000803e3d6000fd5b50565b60008060009054906101000a9004600160a060020a0316905080600160a060020a0316637d64bcb46040518163ffffffff167c0100000000000000000000000000000000000000000000000000000000028152600401602060405180830381600087803b15801561047b57600080fd5b505af115801561048f573d6000803e3d6000fd5b505050506040513d602081101561029e57600080fd5b60045442101580156104b957506005544211155b15156104c457600080fd5b61039782826105a0565b60008215156104df575060006103b2565b508181028183828115156104ef57fe5b04146103b257fe5b60008054604080517f40c10f19000000000000000000000000000000000000000000000000000000008152600160a060020a03868116600483015260248201869052915191909216926340c10f1992604480820193602093909283900390910190829087803b15801561056957600080fd5b505af115801561057d573d6000803e3d6000fd5b505050506040513d602081101561059357600080fd5b5051151561039757600080fd5b600160a060020a03821615156105b557600080fd5b80151561039757600080fd00a165627a7a723058204d55fbeb02359093076eab2e1c66f45f8c2f584f32408b835db7f626d39160630029",
  "source": "pragma solidity 0.4.24;\n\nimport \"openzeppelin-solidity/contracts/crowdsale/Crowdsale.sol\";\nimport \"openzeppelin-solidity/contracts/crowdsale/validation/TimedCrowdsale.sol\";\nimport \"openzeppelin-solidity/contracts/crowdsale/validation/CappedCrowdsale.sol\";\nimport \"openzeppelin-solidity/contracts/crowdsale/emission/MintedCrowdsale.sol\";\nimport \"openzeppelin-solidity/contracts/token/ERC20/ERC20.sol\";\n\ninterface MintableERC20 {\n    function finishMinting() public returns (bool);\n}\n\ncontract WeatherCrowdsale is Crowdsale, TimedCrowdsale, CappedCrowdsale, MintedCrowdsale {\n    bool public isFinalized = false;\n\n    event Finalized();\n    constructor\n    (\n        uint256 _rate,\n        address _wallet,\n        ERC20 _token,\n        uint256 _openingTime,\n        uint256 _closingTime,\n        uint256 _cap\n    ) \n        Crowdsale(_rate, _wallet, _token)\n        TimedCrowdsale(_openingTime, _closingTime)\n        CappedCrowdsale(_cap)\n        public\n    {\n\n    }\n\n    function finalize() public {\n        require(!isFinalized);\n        require(hasClosed() || capReached());\n\n        finalization();\n        emit Finalized();\n\n        isFinalized = true;\n    }\n\n\n    function finalization() internal {\n        MintableERC20 mintableToken = MintableERC20(token);\n        mintableToken.finishMinting();  \n    }\n\n}",
  "sourcePath": "/Users/huub97/PLA2/contracts/WeatherCrowdsale.sol",
  "compiler": {
    "name": "solc",
    "version": "0.4.24+commit.e67f0147.Emscripten.clang"
  },
  "schemaVersion": "2.0.1",
  "updatedAt": "2018-08-28T00:59:09.892Z"
}