{
  "contractName": "WeatherCrowdsale",
  "abi": [
    {
      "constant": true,
      "inputs": [],
      "name": "hasClosed",
      "outputs": [
        {
          "name": "",
          "type": "bool"
        }
      ],
      "payable": false,
      "stateMutability": "view",
      "type": "function"
    },
    {
      "constant": true,
      "inputs": [],
      "name": "finalRate",
      "outputs": [
        {
          "name": "",
          "type": "uint256"
        }
      ],
      "payable": false,
      "stateMutability": "view",
      "type": "function"
    },
    {
      "constant": true,
      "inputs": [],
      "name": "rate",
      "outputs": [
        {
          "name": "",
          "type": "uint256"
        }
      ],
      "payable": false,
      "stateMutability": "view",
      "type": "function"
    },
    {
      "constant": true,
      "inputs": [],
      "name": "cap",
      "outputs": [
        {
          "name": "",
          "type": "uint256"
        }
      ],
      "payable": false,
      "stateMutability": "view",
      "type": "function"
    },
    {
      "constant": true,
      "inputs": [],
      "name": "weiRaised",
      "outputs": [
        {
          "name": "",
          "type": "uint256"
        }
      ],
      "payable": false,
      "stateMutability": "view",
      "type": "function"
    },
    {
      "constant": true,
      "inputs": [],
      "name": "closingTime",
      "outputs": [
        {
          "name": "",
          "type": "uint256"
        }
      ],
      "payable": false,
      "stateMutability": "view",
      "type": "function"
    },
    {
      "constant": true,
      "inputs": [],
      "name": "capReached",
      "outputs": [
        {
          "name": "",
          "type": "bool"
        }
      ],
      "payable": false,
      "stateMutability": "view",
      "type": "function"
    },
    {
      "constant": true,
      "inputs": [],
      "name": "wallet",
      "outputs": [
        {
          "name": "",
          "type": "address"
        }
      ],
      "payable": false,
      "stateMutability": "view",
      "type": "function"
    },
    {
      "constant": true,
      "inputs": [],
      "name": "isFinalized",
      "outputs": [
        {
          "name": "",
          "type": "bool"
        }
      ],
      "payable": false,
      "stateMutability": "view",
      "type": "function"
    },
    {
      "constant": true,
      "inputs": [],
      "name": "initialRate",
      "outputs": [
        {
          "name": "",
          "type": "uint256"
        }
      ],
      "payable": false,
      "stateMutability": "view",
      "type": "function"
    },
    {
      "constant": true,
      "inputs": [],
      "name": "openingTime",
      "outputs": [
        {
          "name": "",
          "type": "uint256"
        }
      ],
      "payable": false,
      "stateMutability": "view",
      "type": "function"
    },
    {
      "constant": false,
      "inputs": [
        {
          "name": "_beneficiary",
          "type": "address"
        }
      ],
      "name": "buyTokens",
      "outputs": [],
      "payable": true,
      "stateMutability": "payable",
      "type": "function"
    },
    {
      "constant": true,
      "inputs": [],
      "name": "getCurrentRate",
      "outputs": [
        {
          "name": "",
          "type": "uint256"
        }
      ],
      "payable": false,
      "stateMutability": "view",
      "type": "function"
    },
    {
      "constant": true,
      "inputs": [],
      "name": "token",
      "outputs": [
        {
          "name": "",
          "type": "address"
        }
      ],
      "payable": false,
      "stateMutability": "view",
      "type": "function"
    },
    {
      "inputs": [
        {
          "name": "_rate",
          "type": "uint256"
        },
        {
          "name": "_wallet",
          "type": "address"
        },
        {
          "name": "_token",
          "type": "address"
        },
        {
          "name": "_openingTime",
          "type": "uint256"
        },
        {
          "name": "_closingTime",
          "type": "uint256"
        },
        {
          "name": "_cap",
          "type": "uint256"
        },
        {
          "name": "_initialRate",
          "type": "uint256"
        },
        {
          "name": "_finalRate",
          "type": "uint256"
        }
      ],
      "payable": false,
      "stateMutability": "nonpayable",
      "type": "constructor"
    },
    {
      "payable": true,
      "stateMutability": "payable",
      "type": "fallback"
    },
    {
      "anonymous": false,
      "inputs": [],
      "name": "Finalized",
      "type": "event"
    },
    {
      "anonymous": false,
      "inputs": [
        {
          "indexed": true,
          "name": "purchaser",
          "type": "address"
        },
        {
          "indexed": true,
          "name": "beneficiary",
          "type": "address"
        },
        {
          "indexed": false,
          "name": "value",
          "type": "uint256"
        },
        {
          "indexed": false,
          "name": "amount",
          "type": "uint256"
        }
      ],
      "name": "TokenPurchase",
      "type": "event"
    },
    {
      "constant": false,
      "inputs": [],
      "name": "finalize",
      "outputs": [],
      "payable": false,
      "stateMutability": "nonpayable",
      "type": "function"
    }
  ],
  "bytecode": "0x60806040526009805460ff1916905534801561001a57600080fd5b506040516101008061085283398101604090815281516020830151918301516060840151608085015160a086015160c087015160e090970151949693949293919290919082828287878c8c8c6000831161007357600080fd5b600160a060020a038216151561008857600080fd5b600160a060020a038116151561009d57600080fd5b60029290925560018054600160a060020a03928316600160a060020a03199182161790915560008054929093169116179055428210156100dc57600080fd5b818110156100e957600080fd5b600491909155600555808210156100ff57600080fd5b6000811161010c57600080fd5b6006919091556007556000811161012257600080fd5b60085550505050505050506107168061013c6000396000f3006080604052600436106100da5763ffffffff7c01000000000000000000000000000000000000000000000000000000006000350416631515bc2b81146100e5578063211061091461010e5780632c4e722e14610135578063355274ea1461014a5780634042b66f1461015f5780634b6753bc146101745780634bb278f3146101895780634f9359451461019e578063521eb273146101b35780638d4e4083146101e45780639e51051f146101f9578063b7a8807c1461020e578063ec8ac4d814610223578063f7fb07b014610237578063fc0c546a1461024c575b6100e333610261565b005b3480156100f157600080fd5b506100fa610303565b604080519115158252519081900360200190f35b34801561011a57600080fd5b5061012361030b565b60408051918252519081900360200190f35b34801561014157600080fd5b50610123610311565b34801561015657600080fd5b50610123610317565b34801561016b57600080fd5b5061012361031d565b34801561018057600080fd5b50610123610323565b34801561019557600080fd5b506100e3610329565b3480156101aa57600080fd5b506100fa61039a565b3480156101bf57600080fd5b506101c86103a5565b60408051600160a060020a039092168252519081900360200190f35b3480156101f057600080fd5b506100fa6103b4565b34801561020557600080fd5b506101236103bd565b34801561021a57600080fd5b506101236103c3565b6100e3600160a060020a0360043516610261565b34801561024357600080fd5b506101236103c9565b34801561025857600080fd5b506101c8610452565b34600061026e8383610461565b61027782610490565b60035490915061028d908363ffffffff6104b416565b60035561029a83826104c7565b60408051838152602081018390528151600160a060020a0386169233927f623b3804fa71d67900d064613da8f94b9617215ee90799290593e1745087ad18929081900390910190a36102ec838361048c565b6102f46104d1565b6102fe838361048c565b505050565b600554421190565b60075481565b60025481565b60085481565b60035481565b60055481565b60095460ff161561033957600080fd5b610341610303565b8061034f575061034f61039a565b151561035a57600080fd5b61036261050d565b6040517f6823b073d48d6e3a7d385eeb601452d680e74bb46afe3255a7d778f3a9b1768190600090a16009805460ff19166001179055565b600854600354101590565b600154600160a060020a031681565b60095460ff1681565b60065481565b60045481565b6000806000806103e4600454426105a790919063ffffffff16565b92506103fd6004546005546105a790919063ffffffff16565b91506104166007546006546105a790919063ffffffff16565b905061044a61043b8361042f868563ffffffff6105b916565b9063ffffffff6105e216565b6006549063ffffffff6105a716565b935050505090565b600054600160a060020a031681565b61046b82826105f7565b600854600354610481908363ffffffff6104b416565b111561048c57600080fd5b5050565b60008061049b6103c9565b90506104ad818463ffffffff6105b916565b9392505050565b818101828110156104c157fe5b92915050565b61048c8282610620565b600154604051600160a060020a03909116903480156108fc02916000818181858888f1935050505015801561050a573d6000803e3d6000fd5b50565b60008060009054906101000a9004600160a060020a0316905080600160a060020a0316637d64bcb46040518163ffffffff167c0100000000000000000000000000000000000000000000000000000000028152600401602060405180830381600087803b15801561057d57600080fd5b505af1158015610591573d6000803e3d6000fd5b505050506040513d60208110156102fe57600080fd5b6000828211156105b357fe5b50900390565b60008215156105ca575060006104c1565b508181028183828115156105da57fe5b04146104c157fe5b600081838115156105ef57fe5b049392505050565b600454421015801561060b57506005544211155b151561061657600080fd5b61048c82826106c9565b60008054604080517f40c10f19000000000000000000000000000000000000000000000000000000008152600160a060020a03868116600483015260248201869052915191909216926340c10f1992604480820193602093909283900390910190829087803b15801561069257600080fd5b505af11580156106a6573d6000803e3d6000fd5b505050506040513d60208110156106bc57600080fd5b5051151561048c57600080fd5b600160a060020a03821615156106de57600080fd5b80151561048c57600080fd00a165627a7a7230582024f31640e2661563c1acf76958838bc0c5709c9b371794b722e5390c933ebb870029",
  "source": "pragma solidity 0.4.24;\n\nimport \"openzeppelin-solidity/contracts/crowdsale/Crowdsale.sol\";\nimport \"openzeppelin-solidity/contracts/crowdsale/validation/TimedCrowdsale.sol\";\nimport \"openzeppelin-solidity/contracts/crowdsale/price/IncreasingPriceCrowdsale.sol\";\nimport \"openzeppelin-solidity/contracts/crowdsale/validation/CappedCrowdsale.sol\";\nimport \"openzeppelin-solidity/contracts/crowdsale/emission/MintedCrowdsale.sol\";\nimport \"openzeppelin-solidity/contracts/token/ERC20/ERC20.sol\";\n\ninterface MintableERC20 {\n    function finishMinting() public returns (bool);\n}\n\ncontract WeatherCrowdsale is Crowdsale, TimedCrowdsale, IncreasingPriceCrowdsale, CappedCrowdsale, MintedCrowdsale {\n    bool public isFinalized = false;\n\n    event Finalized();\n    constructor\n    (\n        uint256 _rate,\n        address _wallet,\n        ERC20 _token,\n        uint256 _openingTime,\n        uint256 _closingTime,\n        uint256 _cap,\n        uint256 _initialRate, \n        uint256 _finalRate\n    ) \n        Crowdsale(_rate, _wallet, _token)\n        TimedCrowdsale(_openingTime, _closingTime)\n        IncreasingPriceCrowdsale(_initialRate, _finalRate)\n        CappedCrowdsale(_cap)\n        public\n    {\n\n    }\n\n\n    function finalize() public {\n        require(!isFinalized);\n        require(hasClosed() || capReached());\n\n        finalization();\n        emit Finalized();\n\n        isFinalized = true;\n    }\n\n\n    function finalization() internal {\n        MintableERC20 mintableToken = MintableERC20(token);\n        mintableToken.finishMinting();  \n    }\n\n}",
  "sourcePath": "/Users/huub97/WRT/contracts/WeatherCrowdsale.sol",
  "compiler": {
    "name": "solc",
    "version": "0.4.24+commit.e67f0147.Emscripten.clang"
  },
  "schemaVersion": "2.0.1",
  "updatedAt": "2018-09-03T14:56:04.719Z"
}